{
  "contractName": "Election",
  "abi": [
    {
      "constant": true,
      "inputs": [],
      "name": "candidatesCount",
      "outputs": [
        {
          "name": "",
          "type": "uint256"
        }
      ],
      "payable": false,
      "stateMutability": "view",
      "type": "function"
    },
    {
      "constant": true,
      "inputs": [
        {
          "name": "",
          "type": "uint256"
        }
      ],
      "name": "candidates",
      "outputs": [
        {
          "name": "id",
          "type": "uint256"
        },
        {
          "name": "name",
          "type": "string"
        },
        {
          "name": "voteCount",
          "type": "uint256"
        },
        {
          "name": "num",
          "type": "uint256"
        }
      ],
      "payable": false,
      "stateMutability": "view",
      "type": "function"
    },
    {
      "constant": true,
      "inputs": [
        {
          "name": "",
          "type": "address"
        }
      ],
      "name": "voters",
      "outputs": [
        {
          "name": "",
          "type": "bool"
        }
      ],
      "payable": false,
      "stateMutability": "view",
      "type": "function"
    },
    {
      "inputs": [],
      "payable": false,
      "stateMutability": "nonpayable",
      "type": "constructor"
    },
    {
      "anonymous": false,
      "inputs": [
        {
          "indexed": true,
          "name": "_candidateID",
          "type": "uint256"
        }
      ],
      "name": "votedEvent",
      "type": "event"
    },
    {
      "constant": false,
      "inputs": [
        {
          "name": "_candidateID",
          "type": "uint256"
        },
        {
          "name": "_rating",
          "type": "uint256"
        }
      ],
      "name": "vote",
      "outputs": [],
      "payable": false,
      "stateMutability": "nonpayable",
      "type": "function"
    }
  ],
  "bytecode": "0x608060405234801561001057600080fd5b5061005e6040805190810160405280600781526020017f44726f6e652031000000000000000000000000000000000000000000000000008152506100b0640100000000026401000000009004565b6100ab6040805190810160405280600781526020017f44726f6e652032000000000000000000000000000000000000000000000000008152506100b0640100000000026401000000009004565b6101e3565b600260008154809291906001019190505550608060405190810160405280600254815260200182815260200160008152602001600081525060016000600254815260200190815260200160002060008201518160000155602082015181600101908051906020019061012392919061013e565b50604082015181600201556060820151816003015590505050565b828054600181600116156101000203166002900490600052602060002090601f016020900481019282601f1061017f57805160ff19168380011785556101ad565b828001600101855582156101ad579182015b828111156101ac578251825591602001919060010190610191565b5b5090506101ba91906101be565b5090565b6101e091905b808211156101dc5760008160009055506001016101c4565b5090565b90565b6103e1806101f26000396000f300608060405260043610610062576000357c0100000000000000000000000000000000000000000000000000000000900463ffffffff1680632d35a8a2146100675780633477ee2e14610092578063a3ec138d1461014d578063b384abef146101a8575b600080fd5b34801561007357600080fd5b5061007c6101df565b6040518082815260200191505060405180910390f35b34801561009e57600080fd5b506100bd600480360381019080803590602001909291905050506101e5565b6040518085815260200180602001848152602001838152602001828103825285818151815260200191508051906020019080838360005b8381101561010f5780820151818401526020810190506100f4565b50505050905090810190601f16801561013c5780820380516001836020036101000a031916815260200191505b509550505050505060405180910390f35b34801561015957600080fd5b5061018e600480360381019080803573ffffffffffffffffffffffffffffffffffffffff1690602001909291905050506102ad565b604051808215151515815260200191505060405180910390f35b3480156101b457600080fd5b506101dd60048036038101908080359060200190929190803590602001909291905050506102cd565b005b60025481565b6001602052806000526040600020600091509050806000015490806001018054600181600116156101000203166002900480601f0160208091040260200160405190810160405280929190818152602001828054600181600116156101000203166002900480156102975780601f1061026c57610100808354040283529160200191610297565b820191906000526020600020905b81548152906001019060200180831161027a57829003601f168201915b5050505050908060020154908060030154905084565b60006020528060005260406000206000915054906101000a900460ff1681565b600080831180156102e057506002548311155b15156102eb57600080fd5b600160008481526020019081526020016000206003015460016000858152602001908152602001600020600201540290506001600084815260200190815260200160002060030160008154809291906001019190505550600160008481526020019081526020016000206003015482820181151561036557fe5b049050806001600085815260200190815260200160002060020181905550827ffff3c900d938d21d0990d786e819f29b8d05c1ef587b462b939609625b684b1660405160405180910390a25050505600a165627a7a72305820f8fa8c1143239271ceb091bae01a97b8790342727490898cfd5870a17a917ab20029",
  "source": "pragma solidity ^0.4.2;\r\n\r\ncontract Election{\r\n    //Model a Candidate\r\n    struct Candidate{\r\n        uint id;\r\n        string name;\r\n        uint voteCount;\r\n        uint num;\r\n    }\r\n    //Store accounts that have voted\r\n    mapping(address => bool) public voters;\r\n    //Store Candidates\r\n    //Fetch Candidates\r\n    mapping(uint => Candidate) public candidates;\r\n    //Store Candidates Count\r\n    uint public candidatesCount;\r\n\r\n    //voted event\r\n    event votedEvent (\r\n        uint indexed _candidateID\r\n    );\r\n    function Election () public {\r\n        addCandidate(\"Drone 1\");\r\n        addCandidate(\"Drone 2\");\r\n    }\r\n\r\n    function addCandidate (string _name) private{\r\n        candidatesCount++;\r\n        candidates[candidatesCount] = Candidate(candidatesCount, _name, 0, 0);\r\n    }\r\n\r\n    function vote(uint _candidateID, uint _rating) public {\r\n        //require that they have not voted before\r\n        // require(!voters[msg.sender]);\r\n        //require a valid candidate\r\n        require(_candidateID > 0 && _candidateID <= candidatesCount);\r\n        //record that voter has voted\r\n        // voters[msg.sender] = true ;\r\n        //update candidate vote Count\r\n        uint temp = candidates[_candidateID].voteCount * candidates[_candidateID].num;\r\n        candidates[_candidateID].num++;\r\n        temp = (temp + _rating)/candidates[_candidateID].num;\r\n        candidates[_candidateID].voteCount = temp;\r\n\r\n        //trigger voted voted\r\n        votedEvent(_candidateID);\r\n    }\r\n}\r\n",
  "sourcePath": "C:\\Users\\geeta\\Desktop\\coding\\ethereum\\Drone Ratings\\contracts\\Election.sol",
  "compiler": {
    "name": "solc",
    "version": "0.4.24+commit.e67f0147.Emscripten.clang"
  },
  "schemaVersion": "2.0.1",
  "updatedAt": "2018-09-05T04:35:54.524Z"
}